{
  "contractName": "Exchange",
  "abi": [
    {
      "inputs": [
        {
          "internalType": "address",
          "name": "_tokenAddress",
          "type": "address"
        }
      ],
      "stateMutability": "nonpayable",
      "type": "constructor"
    },
    {
      "inputs": [],
      "name": "getTotalSupplyOfToken",
      "outputs": [
        {
          "internalType": "uint256",
          "name": "",
          "type": "uint256"
        }
      ],
      "stateMutability": "view",
      "type": "function",
      "constant": true
    },
    {
      "inputs": [],
      "name": "getTokenAddress",
      "outputs": [
        {
          "internalType": "address",
          "name": "",
          "type": "address"
        }
      ],
      "stateMutability": "view",
      "type": "function",
      "constant": true
    },
    {
      "inputs": [
        {
          "internalType": "uint256",
          "name": "_tokenAmount",
          "type": "uint256"
        }
      ],
      "name": "addLiquidity",
      "outputs": [],
      "stateMutability": "payable",
      "type": "function",
      "payable": true
    },
    {
      "inputs": [],
      "name": "getTokenReserve",
      "outputs": [
        {
          "internalType": "uint256",
          "name": "",
          "type": "uint256"
        }
      ],
      "stateMutability": "view",
      "type": "function",
      "constant": true
    },
    {
      "inputs": [],
      "name": "getEtherReserve",
      "outputs": [
        {
          "internalType": "uint256",
          "name": "",
          "type": "uint256"
        }
      ],
      "stateMutability": "view",
      "type": "function",
      "constant": true
    },
    {
      "inputs": [
        {
          "internalType": "uint256",
          "name": "_inputEthAmount",
          "type": "uint256"
        },
        {
          "internalType": "uint256",
          "name": "EthReserve",
          "type": "uint256"
        },
        {
          "internalType": "uint256",
          "name": "tokenReserve",
          "type": "uint256"
        }
      ],
      "name": "getTokenAmount",
      "outputs": [
        {
          "internalType": "uint256",
          "name": "",
          "type": "uint256"
        }
      ],
      "stateMutability": "pure",
      "type": "function",
      "constant": true
    },
    {
      "inputs": [
        {
          "internalType": "uint256",
          "name": "_inputTokenAmount",
          "type": "uint256"
        },
        {
          "internalType": "uint256",
          "name": "tokenReserve",
          "type": "uint256"
        },
        {
          "internalType": "uint256",
          "name": "EthReserve",
          "type": "uint256"
        }
      ],
      "name": "getEtherAmount",
      "outputs": [
        {
          "internalType": "uint256",
          "name": "",
          "type": "uint256"
        }
      ],
      "stateMutability": "pure",
      "type": "function",
      "constant": true
    },
    {
      "inputs": [],
      "name": "changeEtherToToken",
      "outputs": [],
      "stateMutability": "payable",
      "type": "function",
      "payable": true
    },
    {
      "inputs": [
        {
          "internalType": "uint256",
          "name": "_inputTokenAmount",
          "type": "uint256"
        }
      ],
      "name": "changeTokenToEther",
      "outputs": [],
      "stateMutability": "nonpayable",
      "type": "function"
    }
  ],
  "bytecode": "0x60806040523480156200001157600080fd5b50604051620011bf380380620011bf83398181016040528101906200003791906200015a565b600073ffffffffffffffffffffffffffffffffffffffff168173ffffffffffffffffffffffffffffffffffffffff1603620000a9576040517f08c379a0000000000000000000000000000000000000000000000000000000008152600401620000a090620001ed565b60405180910390fd5b806000806101000a81548173ffffffffffffffffffffffffffffffffffffffff021916908373ffffffffffffffffffffffffffffffffffffffff160217905550506200020f565b600080fd5b600073ffffffffffffffffffffffffffffffffffffffff82169050919050565b60006200012282620000f5565b9050919050565b620001348162000115565b81146200014057600080fd5b50565b600081519050620001548162000129565b92915050565b600060208284031215620001735762000172620000f0565b5b6000620001838482850162000143565b91505092915050565b600082825260208201905092915050565b7f616464726573732830292063616e6e6f74206265207573656400000000000000600082015250565b6000620001d56019836200018c565b9150620001e2826200019d565b602082019050919050565b600060208201905081810360008301526200020881620001c6565b9050919050565b610fa0806200021f6000396000f3fe6080604052600436106100865760003560e01c8063ae0f591a11610059578063ae0f591a1461013a578063af35f67f14610163578063c4a862e4146101a0578063c5d53f00146101cb578063f1d9f88b146101d557610086565b806310fe9ae81461008b5780632be7d648146100b657806351c6590a146100f357806381b0b68a1461010f575b600080fd5b34801561009757600080fd5b506100a0610200565b6040516100ad91906109d7565b60405180910390f35b3480156100c257600080fd5b506100dd60048036038101906100d89190610a2d565b610229565b6040516100ea9190610a8f565b60405180910390f35b61010d60048036038101906101089190610aaa565b6102a4565b005b34801561011b57600080fd5b5061012461057d565b6040516101319190610a8f565b60405180910390f35b34801561014657600080fd5b50610161600480360381019061015c9190610aaa565b610585565b005b34801561016f57600080fd5b5061018a60048036038101906101859190610a2d565b610719565b6040516101979190610a8f565b60405180910390f35b3480156101ac57600080fd5b506101b5610794565b6040516101c29190610a8f565b60405180910390f35b6101d361082b565b005b3480156101e157600080fd5b506101ea6108f4565b6040516101f79190610a8f565b60405180910390f35b60008060009054906101000a900473ffffffffffffffffffffffffffffffffffffffff16905090565b60008082856102389190610b06565b9050600085856102489190610b48565b90506000811161028d576040517f08c379a000000000000000000000000000000000000000000000000000000000815260040161028490610bd9565b60405180910390fd5b80826102999190610c28565b925050509392505050565b60008060009054906101000a900473ffffffffffffffffffffffffffffffffffffffff1673ffffffffffffffffffffffffffffffffffffffff166370a08231336040518263ffffffff1660e01b815260040161030091906109d7565b602060405180830381865afa15801561031d573d6000803e3d6000fd5b505050506040513d601f19601f820116820180604052508101906103419190610c6e565b11610381576040517f08c379a000000000000000000000000000000000000000000000000000000000815260040161037890610d0d565b60405180910390fd5b600061038b6108f4565b036104495760008054906101000a900473ffffffffffffffffffffffffffffffffffffffff1673ffffffffffffffffffffffffffffffffffffffff166323b872dd3330670de0b6b3a7640000856103e29190610b06565b6040518463ffffffff1660e01b815260040161040093929190610d2d565b6020604051808303816000875af115801561041f573d6000803e3d6000fd5b505050506040513d601f19601f820116820180604052508101906104439190610d9c565b5061057a565b600034476104579190610dc9565b905060006104636108f4565b905060008282346104749190610b06565b61047e9190610c28565b9050670de0b6b3a7640000846104949190610b06565b81106104d5576040517f08c379a00000000000000000000000000000000000000000000000000000000081526004016104cc90610e6f565b60405180910390fd5b60008054906101000a900473ffffffffffffffffffffffffffffffffffffffff1673ffffffffffffffffffffffffffffffffffffffff166323b872dd3330846040518463ffffffff1660e01b815260040161053293929190610d2d565b6020604051808303816000875af1158015610551573d6000803e3d6000fd5b505050506040513d601f19601f820116820180604052508101906105759190610d9c565b505050505b50565b600047905090565b600061058f6108f4565b905060006105b1670de0b6b3a7640000846105aa9190610b06565b8347610719565b905060008054906101000a900473ffffffffffffffffffffffffffffffffffffffff1673ffffffffffffffffffffffffffffffffffffffff166323b872dd3330670de0b6b3a7640000876106059190610b06565b6040518463ffffffff1660e01b815260040161062393929190610d2d565b6020604051808303816000875af1158015610642573d6000803e3d6000fd5b505050506040513d601f19601f820116820180604052508101906106669190610d9c565b5060003373ffffffffffffffffffffffffffffffffffffffff168260405161068d90610ec0565b60006040518083038185875af1925050503d80600081146106ca576040519150601f19603f3d011682016040523d82523d6000602084013e6106cf565b606091505b5050905080610713576040517f08c379a000000000000000000000000000000000000000000000000000000000815260040161070a90610f21565b60405180910390fd5b50505050565b60008082856107289190610b06565b9050600085856107389190610b48565b90506000811161077d576040517f08c379a000000000000000000000000000000000000000000000000000000000815260040161077490610bd9565b60405180910390fd5b80826107899190610c28565b925050509392505050565b60008060009054906101000a900473ffffffffffffffffffffffffffffffffffffffff1673ffffffffffffffffffffffffffffffffffffffff166318160ddd6040518163ffffffff1660e01b8152600401602060405180830381865afa158015610802573d6000803e3d6000fd5b505050506040513d601f19601f820116820180604052508101906108269190610c6e565b905090565b60006108356108f4565b9050600061084f3434476108499190610dc9565b84610229565b905060008054906101000a900473ffffffffffffffffffffffffffffffffffffffff1673ffffffffffffffffffffffffffffffffffffffff1663a9059cbb33836040518363ffffffff1660e01b81526004016108ac929190610f41565b6020604051808303816000875af11580156108cb573d6000803e3d6000fd5b505050506040513d601f19601f820116820180604052508101906108ef9190610d9c565b505050565b60008060009054906101000a900473ffffffffffffffffffffffffffffffffffffffff1673ffffffffffffffffffffffffffffffffffffffff166370a08231306040518263ffffffff1660e01b815260040161095091906109d7565b602060405180830381865afa15801561096d573d6000803e3d6000fd5b505050506040513d601f19601f820116820180604052508101906109919190610c6e565b905090565b600073ffffffffffffffffffffffffffffffffffffffff82169050919050565b60006109c182610996565b9050919050565b6109d1816109b6565b82525050565b60006020820190506109ec60008301846109c8565b92915050565b600080fd5b6000819050919050565b610a0a816109f7565b8114610a1557600080fd5b50565b600081359050610a2781610a01565b92915050565b600080600060608486031215610a4657610a456109f2565b5b6000610a5486828701610a18565b9350506020610a6586828701610a18565b9250506040610a7686828701610a18565b9150509250925092565b610a89816109f7565b82525050565b6000602082019050610aa46000830184610a80565b92915050565b600060208284031215610ac057610abf6109f2565b5b6000610ace84828501610a18565b91505092915050565b7f4e487b7100000000000000000000000000000000000000000000000000000000600052601160045260246000fd5b6000610b11826109f7565b9150610b1c836109f7565b9250828202610b2a816109f7565b91508282048414831517610b4157610b40610ad7565b5b5092915050565b6000610b53826109f7565b9150610b5e836109f7565b9250828201905080821115610b7657610b75610ad7565b5b92915050565b600082825260208201905092915050565b7f6469766973696f6e206279207a65726f206973206e6f7420616c6c6f77656400600082015250565b6000610bc3601f83610b7c565b9150610bce82610b8d565b602082019050919050565b60006020820190508181036000830152610bf281610bb6565b9050919050565b7f4e487b7100000000000000000000000000000000000000000000000000000000600052601260045260246000fd5b6000610c33826109f7565b9150610c3e836109f7565b925082610c4e57610c4d610bf9565b5b828204905092915050565b600081519050610c6881610a01565b92915050565b600060208284031215610c8457610c836109f2565b5b6000610c9284828501610c59565b91505092915050565b7f546865206163636f756e7420646f6573206e6f74206861766520616e7920746f60008201527f6b656e7300000000000000000000000000000000000000000000000000000000602082015250565b6000610cf7602483610b7c565b9150610d0282610c9b565b604082019050919050565b60006020820190508181036000830152610d2681610cea565b9050919050565b6000606082019050610d4260008301866109c8565b610d4f60208301856109c8565b610d5c6040830184610a80565b949350505050565b60008115159050919050565b610d7981610d64565b8114610d8457600080fd5b50565b600081519050610d9681610d70565b92915050565b600060208284031215610db257610db16109f2565b5b6000610dc084828501610d87565b91505092915050565b6000610dd4826109f7565b9150610ddf836109f7565b9250828203905081811115610df757610df6610ad7565b5b92915050565b7f6e6f7420656e6f75676820746f6b656e732073656e7420666f7220616464696e60008201527f67206c6971756964697479000000000000000000000000000000000000000000602082015250565b6000610e59602b83610b7c565b9150610e6482610dfd565b604082019050919050565b60006020820190508181036000830152610e8881610e4c565b9050919050565b600081905092915050565b50565b6000610eaa600083610e8f565b9150610eb582610e9a565b600082019050919050565b6000610ecb82610e9d565b9150819050919050565b7f4661696c656420746f2073656e64204574686572000000000000000000000000600082015250565b6000610f0b601483610b7c565b9150610f1682610ed5565b602082019050919050565b60006020820190508181036000830152610f3a81610efe565b9050919050565b6000604082019050610f5660008301856109c8565b610f636020830184610a80565b939250505056fea26469706673582212209c252fd248d676172b894a1243f57a321949ec9a9a5525fd19c5a7915feb6f8564736f6c63430008130033",
  "immutableReferences": {},
  "source": "// SPDX-License-Identifier: GPL-3.0\n\npragma solidity ^0.8.3;\n\nimport \"@openzeppelin/contracts/token/ERC20/IERC20.sol\";\ncontract Exchange {\n    address private tokenAddress;\n    \n    constructor (address _tokenAddress) {\n        require(_tokenAddress != address(0), \"address(0) cannot be used\");\n        tokenAddress = _tokenAddress;\n    }\n    \n    function getTotalSupplyOfToken() public view returns(uint) {\n        return IERC20(tokenAddress).totalSupply();\n    }\n\n    function getTokenAddress() public view returns(address) {\n        return tokenAddress;\n    }\n    \n    // //approveSpender //approve from outside (through ui)\n    \n    //addLiquidity\n    function addLiquidity(uint _tokenAmount) public payable {\n        //addLiquidity such that 1 ether equals 10000 tokens(in tests or UI)\n        require(IERC20(tokenAddress).balanceOf(msg.sender) > 0, \"The account does not have any tokens\");\n        if(getTokenReserve() == 0) {\n            IERC20(tokenAddress).transferFrom(msg.sender, address(this), _tokenAmount * 10**18);\n        } else {\n            uint ethReserveBefore = address(this).balance - msg.value;\n            uint tokenReserve = getTokenReserve();\n            uint tokenAmountToAdd = msg.value * tokenReserve / ethReserveBefore;\n            require(tokenAmountToAdd < _tokenAmount * 10 ** 18, \"not enough tokens sent for adding liquidity\");\n            IERC20(tokenAddress).transferFrom(msg.sender, address(this), tokenAmountToAdd);\n        }\n        \n    }\n    \n    //getTokenReserve\n    function getTokenReserve() public view returns(uint) {\n        return IERC20(tokenAddress).balanceOf(address(this));\n    }\n    \n    //getEtherReserve\n    function getEtherReserve() public view returns(uint) {\n        return address(this).balance;\n    }\n        \n    //getTokenAmount\n    function getTokenAmount(uint _inputEthAmount, uint EthReserve, uint tokenReserve) public pure returns(uint) {\n        uint numerator = _inputEthAmount * tokenReserve; //eth will be in wei(10**18)\n        uint denominator = EthReserve + _inputEthAmount;\n        require(denominator > 0, \"division by zero is not allowed\");\n        return numerator/denominator;\n    }\n    \n    //getEthAmount\n    function getEtherAmount(uint _inputTokenAmount, uint tokenReserve, uint EthReserve) public pure returns(uint) {\n        uint numerator = _inputTokenAmount * EthReserve;  //token will also be in wei(10**18)\n        uint denominator = tokenReserve + _inputTokenAmount;\n        require(denominator > 0, \"division by zero is not allowed\");\n        return numerator/denominator;\n    }\n\n    //swapEtherForToken\n    function changeEtherToToken() public payable {\n        uint tokenReserve = getTokenReserve();\n        uint amountOfTokens = getTokenAmount(msg.value, address(this).balance - msg.value, tokenReserve);\n        IERC20(tokenAddress).transfer(msg.sender, amountOfTokens);\n    }\n    \n    //swapTokenForEther\n    function changeTokenToEther(uint _inputTokenAmount) public {\n        uint tokenReserve = getTokenReserve();\n        uint amountOfEthers = getEtherAmount(_inputTokenAmount * 10**18, tokenReserve, address(this).balance);\n        \n        IERC20(tokenAddress).transferFrom(msg.sender, address(this), _inputTokenAmount * 10**18);\n        (bool sent, ) = payable(msg.sender).call{value: amountOfEthers}(\"\");\n        require(sent, \"Failed to send Ether\");\n    }\n    \n}",
  "sourcePath": "/workspace/TokenSwap/contracts/Exchange.sol",
  "compiler": {
    "name": "solc",
    "version": "0.8.19+commit.7dd6d404.Emscripten.clang"
  },
  "schemaVersion": "3.4.13",
  "updatedAt": "2023-04-04T16:19:51.303Z",
  "networkType": "ethereum",
  "devdoc": {
    "kind": "dev",
    "methods": {},
    "version": 1
  },
  "userdoc": {
    "kind": "user",
    "methods": {},
    "version": 1
  }
}